{
	"Contracts/Conditions.sol": {
		"Conditional": {
			"abi": [
				{
					"inputs": [
						{
							"internalType": "uint256",
							"name": "num",
							"type": "uint256"
						}
					],
					"name": "getCheck",
					"outputs": [
						{
							"internalType": "uint256",
							"name": "",
							"type": "uint256"
						}
					],
					"stateMutability": "view",
					"type": "function"
				},
				{
					"inputs": [],
					"name": "number",
					"outputs": [
						{
							"internalType": "uint256",
							"name": "",
							"type": "uint256"
						}
					],
					"stateMutability": "view",
					"type": "function"
				}
			],
			"devdoc": {
				"kind": "dev",
				"methods": {},
				"version": 1
			},
			"evm": {
				"assembly": "    /* \"Contracts/Conditions.sol\":57:236  contract Conditional{... */\n  mstore(0x40, 0x80)\n    /* \"Contracts/Conditions.sol\":102:103  5 */\n  0x05\n    /* \"Contracts/Conditions.sol\":83:103  uint public number=5 */\n  0x00\n  sstore\n    /* \"Contracts/Conditions.sol\":57:236  contract Conditional{... */\n  callvalue\n  dup1\n  iszero\n  tag_1\n  jumpi\n  0x00\n  dup1\n  revert\ntag_1:\n  pop\n  dataSize(sub_0)\n  dup1\n  dataOffset(sub_0)\n  0x00\n  codecopy\n  0x00\n  return\nstop\n\nsub_0: assembly {\n        /* \"Contracts/Conditions.sol\":57:236  contract Conditional{... */\n      mstore(0x40, 0x80)\n      callvalue\n      dup1\n      iszero\n      tag_1\n      jumpi\n      0x00\n      dup1\n      revert\n    tag_1:\n      pop\n      jumpi(tag_2, lt(calldatasize, 0x04))\n      shr(0xe0, calldataload(0x00))\n      dup1\n      0x8381f58a\n      eq\n      tag_3\n      jumpi\n      dup1\n      0x9db797f0\n      eq\n      tag_4\n      jumpi\n    tag_2:\n      0x00\n      dup1\n      revert\n        /* \"Contracts/Conditions.sol\":83:103  uint public number=5 */\n    tag_3:\n      tag_5\n      tag_6\n      jump\t// in\n    tag_5:\n      mload(0x40)\n      tag_7\n      swap2\n      swap1\n      tag_8\n      jump\t// in\n    tag_7:\n      mload(0x40)\n      dup1\n      swap2\n      sub\n      swap1\n      return\n        /* \"Contracts/Conditions.sol\":110:234  function getCheck(uint  num )public view returns (uint){... */\n    tag_4:\n      tag_9\n      0x04\n      dup1\n      calldatasize\n      sub\n      dup2\n      add\n      swap1\n      tag_10\n      swap2\n      swap1\n      tag_11\n      jump\t// in\n    tag_10:\n      tag_12\n      jump\t// in\n    tag_9:\n      mload(0x40)\n      tag_13\n      swap2\n      swap1\n      tag_8\n      jump\t// in\n    tag_13:\n      mload(0x40)\n      dup1\n      swap2\n      sub\n      swap1\n      return\n        /* \"Contracts/Conditions.sol\":83:103  uint public number=5 */\n    tag_6:\n      sload(0x00)\n      dup2\n      jump\t// out\n        /* \"Contracts/Conditions.sol\":110:234  function getCheck(uint  num )public view returns (uint){... */\n    tag_12:\n        /* \"Contracts/Conditions.sol\":160:164  uint */\n      0x00\n        /* \"Contracts/Conditions.sol\":183:189  number */\n      dup1\n      sload\n        /* \"Contracts/Conditions.sol\":178:181  num */\n      dup3\n        /* \"Contracts/Conditions.sol\":178:189  num==number */\n      sub\n        /* \"Contracts/Conditions.sol\":175:228  if(num==number){... */\n      tag_15\n      jumpi\n        /* \"Contracts/Conditions.sol\":211:217  number */\n      sload(0x00)\n        /* \"Contracts/Conditions.sol\":204:217  return number */\n      swap1\n      pop\n      jump(tag_14)\n        /* \"Contracts/Conditions.sol\":175:228  if(num==number){... */\n    tag_15:\n        /* \"Contracts/Conditions.sol\":110:234  function getCheck(uint  num )public view returns (uint){... */\n    tag_14:\n      swap2\n      swap1\n      pop\n      jump\t// out\n        /* \"#utility.yul\":7:84   */\n    tag_16:\n        /* \"#utility.yul\":44:51   */\n      0x00\n        /* \"#utility.yul\":73:78   */\n      dup2\n        /* \"#utility.yul\":62:78   */\n      swap1\n      pop\n        /* \"#utility.yul\":7:84   */\n      swap2\n      swap1\n      pop\n      jump\t// out\n        /* \"#utility.yul\":90:208   */\n    tag_17:\n        /* \"#utility.yul\":177:201   */\n      tag_26\n        /* \"#utility.yul\":195:200   */\n      dup2\n        /* \"#utility.yul\":177:201   */\n      tag_16\n      jump\t// in\n    tag_26:\n        /* \"#utility.yul\":172:175   */\n      dup3\n        /* \"#utility.yul\":165:202   */\n      mstore\n        /* \"#utility.yul\":90:208   */\n      pop\n      pop\n      jump\t// out\n        /* \"#utility.yul\":214:436   */\n    tag_8:\n        /* \"#utility.yul\":307:311   */\n      0x00\n        /* \"#utility.yul\":345:347   */\n      0x20\n        /* \"#utility.yul\":334:343   */\n      dup3\n        /* \"#utility.yul\":330:348   */\n      add\n        /* \"#utility.yul\":322:348   */\n      swap1\n      pop\n        /* \"#utility.yul\":358:429   */\n      tag_28\n        /* \"#utility.yul\":426:427   */\n      0x00\n        /* \"#utility.yul\":415:424   */\n      dup4\n        /* \"#utility.yul\":411:428   */\n      add\n        /* \"#utility.yul\":402:408   */\n      dup5\n        /* \"#utility.yul\":358:429   */\n      tag_17\n      jump\t// in\n    tag_28:\n        /* \"#utility.yul\":214:436   */\n      swap3\n      swap2\n      pop\n      pop\n      jump\t// out\n        /* \"#utility.yul\":523:640   */\n    tag_19:\n        /* \"#utility.yul\":632:633   */\n      0x00\n        /* \"#utility.yul\":629:630   */\n      dup1\n        /* \"#utility.yul\":622:634   */\n      revert\n        /* \"#utility.yul\":769:891   */\n    tag_21:\n        /* \"#utility.yul\":842:866   */\n      tag_33\n        /* \"#utility.yul\":860:865   */\n      dup2\n        /* \"#utility.yul\":842:866   */\n      tag_16\n      jump\t// in\n    tag_33:\n        /* \"#utility.yul\":835:840   */\n      dup2\n        /* \"#utility.yul\":832:867   */\n      eq\n        /* \"#utility.yul\":822:885   */\n      tag_34\n      jumpi\n        /* \"#utility.yul\":881:882   */\n      0x00\n        /* \"#utility.yul\":878:879   */\n      dup1\n        /* \"#utility.yul\":871:883   */\n      revert\n        /* \"#utility.yul\":822:885   */\n    tag_34:\n        /* \"#utility.yul\":769:891   */\n      pop\n      jump\t// out\n        /* \"#utility.yul\":897:1036   */\n    tag_22:\n        /* \"#utility.yul\":943:948   */\n      0x00\n        /* \"#utility.yul\":981:987   */\n      dup2\n        /* \"#utility.yul\":968:988   */\n      calldataload\n        /* \"#utility.yul\":959:988   */\n      swap1\n      pop\n        /* \"#utility.yul\":997:1030   */\n      tag_36\n        /* \"#utility.yul\":1024:1029   */\n      dup2\n        /* \"#utility.yul\":997:1030   */\n      tag_21\n      jump\t// in\n    tag_36:\n        /* \"#utility.yul\":897:1036   */\n      swap3\n      swap2\n      pop\n      pop\n      jump\t// out\n        /* \"#utility.yul\":1042:1371   */\n    tag_11:\n        /* \"#utility.yul\":1101:1107   */\n      0x00\n        /* \"#utility.yul\":1150:1152   */\n      0x20\n        /* \"#utility.yul\":1138:1147   */\n      dup3\n        /* \"#utility.yul\":1129:1136   */\n      dup5\n        /* \"#utility.yul\":1125:1148   */\n      sub\n        /* \"#utility.yul\":1121:1153   */\n      slt\n        /* \"#utility.yul\":1118:1237   */\n      iszero\n      tag_38\n      jumpi\n        /* \"#utility.yul\":1156:1235   */\n      tag_39\n      tag_19\n      jump\t// in\n    tag_39:\n        /* \"#utility.yul\":1118:1237   */\n    tag_38:\n        /* \"#utility.yul\":1276:1277   */\n      0x00\n        /* \"#utility.yul\":1301:1354   */\n      tag_40\n        /* \"#utility.yul\":1346:1353   */\n      dup5\n        /* \"#utility.yul\":1337:1343   */\n      dup3\n        /* \"#utility.yul\":1326:1335   */\n      dup6\n        /* \"#utility.yul\":1322:1344   */\n      add\n        /* \"#utility.yul\":1301:1354   */\n      tag_22\n      jump\t// in\n    tag_40:\n        /* \"#utility.yul\":1291:1354   */\n      swap2\n      pop\n        /* \"#utility.yul\":1247:1364   */\n      pop\n        /* \"#utility.yul\":1042:1371   */\n      swap3\n      swap2\n      pop\n      pop\n      jump\t// out\n\n    auxdata: 0xa264697066735822122059e531e4825cf9e8700b39c95a0cd23eef1d082385f00abd0ed3a2d366d72cb964736f6c63430008120033\n}\n",
				"bytecode": {
					"linkReferences": {},
					"object": "6080604052600560005534801561001557600080fd5b50610171806100256000396000f3fe608060405234801561001057600080fd5b50600436106100365760003560e01c80638381f58a1461003b5780639db797f014610059575b600080fd5b610043610089565b60405161005091906100c2565b60405180910390f35b610073600480360381019061006e919061010e565b61008f565b60405161008091906100c2565b60405180910390f35b60005481565b6000805482036100a35760005490506100a4565b5b919050565b6000819050919050565b6100bc816100a9565b82525050565b60006020820190506100d760008301846100b3565b92915050565b600080fd5b6100eb816100a9565b81146100f657600080fd5b50565b600081359050610108816100e2565b92915050565b600060208284031215610124576101236100dd565b5b6000610132848285016100f9565b9150509291505056fea264697066735822122059e531e4825cf9e8700b39c95a0cd23eef1d082385f00abd0ed3a2d366d72cb964736f6c63430008120033",
					"opcodes": "PUSH1 0x80 PUSH1 0x40 MSTORE PUSH1 0x5 PUSH1 0x0 SSTORE CALLVALUE DUP1 ISZERO PUSH2 0x15 JUMPI PUSH1 0x0 DUP1 REVERT JUMPDEST POP PUSH2 0x171 DUP1 PUSH2 0x25 PUSH1 0x0 CODECOPY PUSH1 0x0 RETURN INVALID PUSH1 0x80 PUSH1 0x40 MSTORE CALLVALUE DUP1 ISZERO PUSH2 0x10 JUMPI PUSH1 0x0 DUP1 REVERT JUMPDEST POP PUSH1 0x4 CALLDATASIZE LT PUSH2 0x36 JUMPI PUSH1 0x0 CALLDATALOAD PUSH1 0xE0 SHR DUP1 PUSH4 0x8381F58A EQ PUSH2 0x3B JUMPI DUP1 PUSH4 0x9DB797F0 EQ PUSH2 0x59 JUMPI JUMPDEST PUSH1 0x0 DUP1 REVERT JUMPDEST PUSH2 0x43 PUSH2 0x89 JUMP JUMPDEST PUSH1 0x40 MLOAD PUSH2 0x50 SWAP2 SWAP1 PUSH2 0xC2 JUMP JUMPDEST PUSH1 0x40 MLOAD DUP1 SWAP2 SUB SWAP1 RETURN JUMPDEST PUSH2 0x73 PUSH1 0x4 DUP1 CALLDATASIZE SUB DUP2 ADD SWAP1 PUSH2 0x6E SWAP2 SWAP1 PUSH2 0x10E JUMP JUMPDEST PUSH2 0x8F JUMP JUMPDEST PUSH1 0x40 MLOAD PUSH2 0x80 SWAP2 SWAP1 PUSH2 0xC2 JUMP JUMPDEST PUSH1 0x40 MLOAD DUP1 SWAP2 SUB SWAP1 RETURN JUMPDEST PUSH1 0x0 SLOAD DUP2 JUMP JUMPDEST PUSH1 0x0 DUP1 SLOAD DUP3 SUB PUSH2 0xA3 JUMPI PUSH1 0x0 SLOAD SWAP1 POP PUSH2 0xA4 JUMP JUMPDEST JUMPDEST SWAP2 SWAP1 POP JUMP JUMPDEST PUSH1 0x0 DUP2 SWAP1 POP SWAP2 SWAP1 POP JUMP JUMPDEST PUSH2 0xBC DUP2 PUSH2 0xA9 JUMP JUMPDEST DUP3 MSTORE POP POP JUMP JUMPDEST PUSH1 0x0 PUSH1 0x20 DUP3 ADD SWAP1 POP PUSH2 0xD7 PUSH1 0x0 DUP4 ADD DUP5 PUSH2 0xB3 JUMP JUMPDEST SWAP3 SWAP2 POP POP JUMP JUMPDEST PUSH1 0x0 DUP1 REVERT JUMPDEST PUSH2 0xEB DUP2 PUSH2 0xA9 JUMP JUMPDEST DUP2 EQ PUSH2 0xF6 JUMPI PUSH1 0x0 DUP1 REVERT JUMPDEST POP JUMP JUMPDEST PUSH1 0x0 DUP2 CALLDATALOAD SWAP1 POP PUSH2 0x108 DUP2 PUSH2 0xE2 JUMP JUMPDEST SWAP3 SWAP2 POP POP JUMP JUMPDEST PUSH1 0x0 PUSH1 0x20 DUP3 DUP5 SUB SLT ISZERO PUSH2 0x124 JUMPI PUSH2 0x123 PUSH2 0xDD JUMP JUMPDEST JUMPDEST PUSH1 0x0 PUSH2 0x132 DUP5 DUP3 DUP6 ADD PUSH2 0xF9 JUMP JUMPDEST SWAP2 POP POP SWAP3 SWAP2 POP POP JUMP INVALID LOG2 PUSH5 0x6970667358 0x22 SLT KECCAK256 MSIZE 0xE5 BALANCE 0xE4 DUP3 0x5C 0xF9 0xE8 PUSH17 0xB39C95A0CD23EEF1D082385F00ABD0ED3 LOG2 0xD3 PUSH7 0xD72CB964736F6C PUSH4 0x43000812 STOP CALLER "
				},
				"gasEstimates": {
					"creation": {
						"codeDepositCost": "73800",
						"executionCost": "22229",
						"totalCost": "96029"
					},
					"external": {
						"getCheck(uint256)": "infinite",
						"number()": "2407"
					}
				},
				"methodIdentifiers": {
					"getCheck(uint256)": "9db797f0",
					"number()": "8381f58a"
				}
			},
			"storageLayout": {
				"storage": [
					{
						"astId": 4,
						"contract": "Contracts/Conditions.sol:Conditional",
						"label": "number",
						"offset": 0,
						"slot": "0",
						"type": "t_uint256"
					}
				],
				"types": {
					"t_uint256": {
						"encoding": "inplace",
						"label": "uint256",
						"numberOfBytes": "32"
					}
				}
			},
			"userdoc": {
				"kind": "user",
				"methods": {},
				"version": 1
			}
		}
	}
}